{
  "contractName": "Voting",
  "abi": [
    {
      "inputs": [
        {
          "internalType": "address[]",
          "name": "_admins",
          "type": "address[]"
        },
        {
          "internalType": "address",
          "name": "_daoPool",
          "type": "address"
        }
      ],
      "stateMutability": "nonpayable",
      "type": "constructor"
    },
    {
      "anonymous": false,
      "inputs": [
        {
          "indexed": false,
          "internalType": "string",
          "name": "ipfsHash",
          "type": "string"
        },
        {
          "indexed": false,
          "internalType": "uint8",
          "name": "numOfOptions",
          "type": "uint8"
        },
        {
          "indexed": false,
          "internalType": "uint256",
          "name": "minimumStakeValue",
          "type": "uint256"
        },
        {
          "indexed": false,
          "internalType": "bool",
          "name": "isLossVoting",
          "type": "bool"
        }
      ],
      "name": "CreateProposal",
      "type": "event"
    },
    {
      "anonymous": false,
      "inputs": [
        {
          "indexed": true,
          "internalType": "address",
          "name": "voter",
          "type": "address"
        },
        {
          "indexed": false,
          "internalType": "uint256",
          "name": "amount",
          "type": "uint256"
        },
        {
          "indexed": false,
          "internalType": "uint8",
          "name": "voteOption",
          "type": "uint8"
        },
        {
          "indexed": true,
          "internalType": "string",
          "name": "proposalHash",
          "type": "string"
        }
      ],
      "name": "LossVote",
      "type": "event"
    },
    {
      "anonymous": false,
      "inputs": [
        {
          "indexed": true,
          "internalType": "address",
          "name": "voter",
          "type": "address"
        },
        {
          "indexed": false,
          "internalType": "uint256",
          "name": "amount",
          "type": "uint256"
        },
        {
          "indexed": false,
          "internalType": "uint8",
          "name": "voteOption",
          "type": "uint8"
        },
        {
          "indexed": true,
          "internalType": "string",
          "name": "proposalHash",
          "type": "string"
        }
      ],
      "name": "NoLossVote",
      "type": "event"
    },
    {
      "inputs": [
        {
          "internalType": "address",
          "name": "_admin",
          "type": "address"
        }
      ],
      "name": "addAdmin",
      "outputs": [],
      "stateMutability": "nonpayable",
      "type": "function"
    },
    {
      "inputs": [],
      "name": "getProposalHashes",
      "outputs": [
        {
          "internalType": "string[]",
          "name": "",
          "type": "string[]"
        }
      ],
      "stateMutability": "view",
      "type": "function"
    },
    {
      "inputs": [
        {
          "internalType": "string",
          "name": "_ipfsHash",
          "type": "string"
        }
      ],
      "name": "getProposalInfo",
      "outputs": [
        {
          "components": [
            {
              "internalType": "string",
              "name": "ipfsHash",
              "type": "string"
            },
            {
              "internalType": "uint8",
              "name": "numOfOptions",
              "type": "uint8"
            },
            {
              "internalType": "uint256",
              "name": "minimumStakeValue",
              "type": "uint256"
            },
            {
              "internalType": "uint256[]",
              "name": "stakedValuePerOption",
              "type": "uint256[]"
            },
            {
              "components": [
                {
                  "internalType": "string",
                  "name": "proposalHash",
                  "type": "string"
                },
                {
                  "internalType": "address",
                  "name": "voter",
                  "type": "address"
                },
                {
                  "internalType": "uint8",
                  "name": "option",
                  "type": "uint8"
                },
                {
                  "internalType": "uint256",
                  "name": "amount",
                  "type": "uint256"
                }
              ],
              "internalType": "struct Voting.VoteInfo[]",
              "name": "votes",
              "type": "tuple[]"
            },
            {
              "internalType": "bool",
              "name": "isActive",
              "type": "bool"
            },
            {
              "internalType": "bool",
              "name": "isLossVoting",
              "type": "bool"
            },
            {
              "internalType": "bool",
              "name": "isAllocationProposal",
              "type": "bool"
            },
            {
              "internalType": "bool",
              "name": "exists",
              "type": "bool"
            }
          ],
          "internalType": "struct Voting.ProposalInfo",
          "name": "",
          "type": "tuple"
        }
      ],
      "stateMutability": "view",
      "type": "function"
    },
    {
      "inputs": [],
      "name": "getAllProposals",
      "outputs": [
        {
          "components": [
            {
              "internalType": "string",
              "name": "ipfsHash",
              "type": "string"
            },
            {
              "internalType": "uint8",
              "name": "numOfOptions",
              "type": "uint8"
            },
            {
              "internalType": "uint256",
              "name": "minimumStakeValue",
              "type": "uint256"
            },
            {
              "internalType": "uint256[]",
              "name": "stakedValuePerOption",
              "type": "uint256[]"
            },
            {
              "components": [
                {
                  "internalType": "string",
                  "name": "proposalHash",
                  "type": "string"
                },
                {
                  "internalType": "address",
                  "name": "voter",
                  "type": "address"
                },
                {
                  "internalType": "uint8",
                  "name": "option",
                  "type": "uint8"
                },
                {
                  "internalType": "uint256",
                  "name": "amount",
                  "type": "uint256"
                }
              ],
              "internalType": "struct Voting.VoteInfo[]",
              "name": "votes",
              "type": "tuple[]"
            },
            {
              "internalType": "bool",
              "name": "isActive",
              "type": "bool"
            },
            {
              "internalType": "bool",
              "name": "isLossVoting",
              "type": "bool"
            },
            {
              "internalType": "bool",
              "name": "isAllocationProposal",
              "type": "bool"
            },
            {
              "internalType": "bool",
              "name": "exists",
              "type": "bool"
            }
          ],
          "internalType": "struct Voting.ProposalInfo[]",
          "name": "proposalInfos",
          "type": "tuple[]"
        }
      ],
      "stateMutability": "view",
      "type": "function"
    },
    {
      "inputs": [
        {
          "internalType": "string",
          "name": "_ipfsHash",
          "type": "string"
        },
        {
          "internalType": "uint8",
          "name": "_optionIndex",
          "type": "uint8"
        }
      ],
      "name": "getVotesForOption",
      "outputs": [
        {
          "components": [
            {
              "internalType": "string",
              "name": "proposalHash",
              "type": "string"
            },
            {
              "internalType": "address",
              "name": "voter",
              "type": "address"
            },
            {
              "internalType": "uint8",
              "name": "option",
              "type": "uint8"
            },
            {
              "internalType": "uint256",
              "name": "amount",
              "type": "uint256"
            }
          ],
          "internalType": "struct Voting.VoteInfo[]",
          "name": "votes",
          "type": "tuple[]"
        }
      ],
      "stateMutability": "view",
      "type": "function"
    },
    {
      "inputs": [
        {
          "internalType": "string",
          "name": "_ipfsHash",
          "type": "string"
        },
        {
          "internalType": "uint8",
          "name": "_numOfOptions",
          "type": "uint8"
        },
        {
          "internalType": "uint256",
          "name": "_minimumStakeValue",
          "type": "uint256"
        },
        {
          "internalType": "bool",
          "name": "_isLossVoting",
          "type": "bool"
        },
        {
          "internalType": "bool",
          "name": "_isAllocationProposal",
          "type": "bool"
        }
      ],
      "name": "createProposal",
      "outputs": [],
      "stateMutability": "nonpayable",
      "type": "function"
    },
    {
      "inputs": [
        {
          "internalType": "string",
          "name": "_ipfsHash",
          "type": "string"
        },
        {
          "internalType": "bool",
          "name": "_isActive",
          "type": "bool"
        }
      ],
      "name": "setProposalStatus",
      "outputs": [
        {
          "components": [
            {
              "internalType": "string",
              "name": "ipfsHash",
              "type": "string"
            },
            {
              "internalType": "uint8",
              "name": "numOfOptions",
              "type": "uint8"
            },
            {
              "internalType": "uint256",
              "name": "minimumStakeValue",
              "type": "uint256"
            },
            {
              "internalType": "uint256[]",
              "name": "stakedValuePerOption",
              "type": "uint256[]"
            },
            {
              "components": [
                {
                  "internalType": "string",
                  "name": "proposalHash",
                  "type": "string"
                },
                {
                  "internalType": "address",
                  "name": "voter",
                  "type": "address"
                },
                {
                  "internalType": "uint8",
                  "name": "option",
                  "type": "uint8"
                },
                {
                  "internalType": "uint256",
                  "name": "amount",
                  "type": "uint256"
                }
              ],
              "internalType": "struct Voting.VoteInfo[]",
              "name": "votes",
              "type": "tuple[]"
            },
            {
              "internalType": "bool",
              "name": "isActive",
              "type": "bool"
            },
            {
              "internalType": "bool",
              "name": "isLossVoting",
              "type": "bool"
            },
            {
              "internalType": "bool",
              "name": "isAllocationProposal",
              "type": "bool"
            },
            {
              "internalType": "bool",
              "name": "exists",
              "type": "bool"
            }
          ],
          "internalType": "struct Voting.ProposalInfo",
          "name": "",
          "type": "tuple"
        }
      ],
      "stateMutability": "nonpayable",
      "type": "function"
    },
    {
      "inputs": [
        {
          "internalType": "string",
          "name": "_ipfsHash",
          "type": "string"
        },
        {
          "internalType": "uint8",
          "name": "_optionIndex",
          "type": "uint8"
        },
        {
          "internalType": "uint256",
          "name": "_stakeValue",
          "type": "uint256"
        }
      ],
      "name": "vote",
      "outputs": [],
      "stateMutability": "nonpayable",
      "type": "function"
    }
  ],
  "bytecode": "0x60806040523480156200001157600080fd5b50604051620033b9380380620033b9833981810160405281019062000037919062000271565b81806000908051906020019062000050929190620000fe565b506000339080600181540180825580915050600190039060005260206000200160009091909190916101000a81548173ffffffffffffffffffffffffffffffffffffffff021916908373ffffffffffffffffffffffffffffffffffffffff1602179055505080600360006101000a81548173ffffffffffffffffffffffffffffffffffffffff021916908373ffffffffffffffffffffffffffffffffffffffff160217905550505062000407565b8280548282559060005260206000209081019282156200017a579160200282015b82811115620001795782518260006101000a81548173ffffffffffffffffffffffffffffffffffffffff021916908373ffffffffffffffffffffffffffffffffffffffff160217905550916020019190600101906200011f565b5b5090506200018991906200018d565b5090565b5b80821115620001a85760008160009055506001016200018e565b5090565b6000620001c3620001bd8462000300565b620002d7565b90508083825260208201905082856020860282011115620001e957620001e8620003cd565b5b60005b858110156200021d578162000202888262000227565b845260208401935060208301925050600181019050620001ec565b5050509392505050565b6000815190506200023881620003ed565b92915050565b600082601f830112620002565762000255620003c8565b5b815162000268848260208601620001ac565b91505092915050565b600080604083850312156200028b576200028a620003d7565b5b600083015167ffffffffffffffff811115620002ac57620002ab620003d2565b5b620002ba858286016200023e565b9250506020620002cd8582860162000227565b9150509250929050565b6000620002e3620002f6565b9050620002f1828262000363565b919050565b6000604051905090565b600067ffffffffffffffff8211156200031e576200031d62000399565b5b602082029050602081019050919050565b60006200033c8262000343565b9050919050565b600073ffffffffffffffffffffffffffffffffffffffff82169050919050565b6200036e82620003dc565b810181811067ffffffffffffffff8211171562000390576200038f62000399565b5b80604052505050565b7f4e487b7100000000000000000000000000000000000000000000000000000000600052604160045260246000fd5b600080fd5b600080fd5b600080fd5b600080fd5b6000601f19601f8301169050919050565b620003f8816200032f565b81146200040457600080fd5b50565b612fa280620004176000396000f3fe608060405234801561001057600080fd5b50600436106100885760003560e01c8063704802751161005b5780637048027514610125578063cceb68f514610141578063d808cf621461015f578063d8a9afb21461017d57610088565b806329a598f31461008d5780634c199f5a146100a95780634c765721146100d95780636cbe478114610109575b600080fd5b6100a760048036038101906100a29190611e3f565b6101ad565b005b6100c360048036038101906100be9190611d18565b6104e2565b6040516100d091906128ad565b60405180910390f35b6100f360048036038101906100ee9190611d74565b610ab2565b604051610100919061273f565b60405180910390f35b610123600480360381019061011e9190611dd0565b610bb3565b005b61013f600480360381019061013a9190611ca2565b6110ba565b005b610149611201565b604051610156919061271d565b60405180910390f35b6101676115d5565b60405161017491906126fb565b60405180910390f35b61019760048036038101906101929190611ccf565b6116ae565b6040516101a491906128ad565b60405180910390f35b6000805b60008054905081101561024c573373ffffffffffffffffffffffffffffffffffffffff16600082815481106101e9576101e8612c87565b5b9060005260206000200160009054906101000a900473ffffffffffffffffffffffffffffffffffffffff1673ffffffffffffffffffffffffffffffffffffffff161415610239576001915061024c565b808061024490612be0565b9150506101b1565b508061028d576040517f08c379a00000000000000000000000000000000000000000000000000000000081526004016102849061282d565b60405180910390fd5b60018560ff16116102d3576040517f08c379a00000000000000000000000000000000000000000000000000000000081526004016102ca906127ad565b60405180910390fd5b6002866040516102e39190612663565b908152602001604051809103902060050160039054906101000a900460ff1615610342576040517f08c379a00000000000000000000000000000000000000000000000000000000081526004016103399061284d565b60405180910390fd5b60006002876040516103549190612663565b90815260200160405180910390209050858160010160006101000a81548160ff021916908360ff1602179055508481600201819055508560ff1667ffffffffffffffff8111156103a7576103a6612cb6565b5b6040519080825280602002602001820160405280156103d55781602001602082028036833780820191505090505b508160030190805190602001906103ed929190611a56565b50828160050160026101000a81548160ff021916908315150217905550838160050160016101000a81548160ff02191690831515021790555060018160050160006101000a81548160ff02191690831515021790555060018160050160036101000a81548160ff02191690831515021790555060018790806001815401808255809150506001900390600052602060002001600090919091909150908051906020019061049b929190611aa3565b507f7cb6437f7f581bd0a3902e279a1fee9269a4392702bbf43f451d73ec8171bf08878787876040516104d19493929190612761565b60405180910390a150505050505050565b6104ea611b29565b6000805b600080549050811015610589573373ffffffffffffffffffffffffffffffffffffffff166000828154811061052657610525612c87565b5b9060005260206000200160009054906101000a900473ffffffffffffffffffffffffffffffffffffffff1673ffffffffffffffffffffffffffffffffffffffff1614156105765760019150610589565b808061058190612be0565b9150506104ee565b50806105ca576040517f08c379a00000000000000000000000000000000000000000000000000000000081526004016105c19061282d565b60405180910390fd5b6002846040516105da9190612663565b908152602001604051809103902060050160039054906101000a900460ff16610638576040517f08c379a000000000000000000000000000000000000000000000000000000000815260040161062f9061286d565b60405180910390fd5b600060028560405161064a9190612663565b90815260200160405180910390209050838160050160006101000a81548160ff0219169083151502179055508060050160019054906101000a900460ff161580156106a457508060050160009054906101000a900460ff16155b156107b05760005b81600401805490508110156107ae5760008260040182815481106106d3576106d2612c87565b5b90600052602060002090600302019050600360009054906101000a900473ffffffffffffffffffffffffffffffffffffffff1673ffffffffffffffffffffffffffffffffffffffff16637f9c3d3e8260010160009054906101000a900473ffffffffffffffffffffffffffffffffffffffff1683600201546040518363ffffffff1660e01b8152600401610768929190612691565b600060405180830381600087803b15801561078257600080fd5b505af1158015610796573d6000803e3d6000fd5b505050505080806107a690612be0565b9150506106ac565b505b80604051806101200160405290816000820180546107cd90612b7d565b80601f01602080910402602001604051908101604052809291908181526020018280546107f990612b7d565b80156108465780601f1061081b57610100808354040283529160200191610846565b820191906000526020600020905b81548152906001019060200180831161082957829003601f168201915b505050505081526020016001820160009054906101000a900460ff1660ff1660ff16815260200160028201548152602001600382018054806020026020016040519081016040528092919081815260200182805480156108c557602002820191906000526020600020905b8154815260200190600101908083116108b1575b5050505050815260200160048201805480602002602001604051908101604052809291908181526020016000905b82821015610a34578382906000526020600020906003020160405180608001604052908160008201805461092690612b7d565b80601f016020809104026020016040519081016040528092919081815260200182805461095290612b7d565b801561099f5780601f106109745761010080835404028352916020019161099f565b820191906000526020600020905b81548152906001019060200180831161098257829003601f168201915b505050505081526020016001820160009054906101000a900473ffffffffffffffffffffffffffffffffffffffff1673ffffffffffffffffffffffffffffffffffffffff1673ffffffffffffffffffffffffffffffffffffffff1681526020016001820160149054906101000a900460ff1660ff1660ff168152602001600282015481525050815260200190600101906108f3565b5050505081526020016005820160009054906101000a900460ff161515151581526020016005820160019054906101000a900460ff161515151581526020016005820160029054906101000a900460ff161515151581526020016005820160039054906101000a900460ff1615151515815250509250505092915050565b60606000610abf846116ae565b9050600081608001515167ffffffffffffffff811115610ae257610ae1612cb6565b5b604051908082528060200260200182016040528015610b1b57816020015b610b08611b80565b815260200190600190039081610b005790505b5090506000805b836080015151811015610ba657600084608001518281518110610b4857610b47612c87565b5b602002602001015190508660ff16816040015160ff161415610b925780848481518110610b7857610b77612c87565b5b60200260200101819052508280610b8e90612be0565b9350505b508080610b9e90612be0565b915050610b22565b5081935050505092915050565b600283604051610bc39190612663565b908152602001604051809103902060050160039054906101000a900460ff16610c21576040517f08c379a0000000000000000000000000000000000000000000000000000000008152600401610c189061286d565b60405180910390fd5b6000600284604051610c339190612663565b908152602001604051809103902090508060050160009054906101000a900460ff16610c94576040517f08c379a0000000000000000000000000000000000000000000000000000000008152600401610c8b9061280d565b60405180910390fd5b8060020154821015610cdb576040517f08c379a0000000000000000000000000000000000000000000000000000000008152600401610cd2906127cd565b60405180910390fd5b8060010160009054906101000a900460ff1660ff168360ff1610610d34576040517f08c379a0000000000000000000000000000000000000000000000000000000008152600401610d2b9061288d565b60405180910390fd5b6000610d408585610ab2565b905060005b8151811015610dee573373ffffffffffffffffffffffffffffffffffffffff16828281518110610d7857610d77612c87565b5b60200260200101516020015173ffffffffffffffffffffffffffffffffffffffff161415610ddb576040517f08c379a0000000000000000000000000000000000000000000000000000000008152600401610dd2906127ed565b60405180910390fd5b8080610de690612be0565b915050610d45565b50600360009054906101000a900473ffffffffffffffffffffffffffffffffffffffff1673ffffffffffffffffffffffffffffffffffffffff1663ed4b051c33856040518363ffffffff1660e01b8152600401610e4c9291906126c6565b600060405180830381600087803b158015610e6657600080fd5b505af1158015610e7a573d6000803e3d6000fd5b50505050610eab826003018560ff1681548110610e9a57610e99612c87565b5b906000526020600020015484611a40565b826003018560ff1681548110610ec457610ec3612c87565b5b90600052602060002001819055508160040160405180608001604052808781526020013373ffffffffffffffffffffffffffffffffffffffff1681526020018660ff1681526020018581525090806001815401808255809150506001900390600052602060002090600302016000909190919091506000820151816000019080519060200190610f55929190611aa3565b5060208201518160010160006101000a81548173ffffffffffffffffffffffffffffffffffffffff021916908373ffffffffffffffffffffffffffffffffffffffff16021790555060408201518160010160146101000a81548160ff021916908360ff1602179055506060820151816002015550508160050160019054906101000a900460ff161561104c5784604051610fef9190612663565b60405180910390203373ffffffffffffffffffffffffffffffffffffffff167f82bd8d08cf6d2f68ccd3cda34c3cfd978a5c3040808fa79a52b862c22a44e30a858760405161103f9291906128cf565b60405180910390a36110b3565b8460405161105a9190612663565b60405180910390203373ffffffffffffffffffffffffffffffffffffffff167fb07c9c7500ab0eb73530bc3edfd7a91d61ed95bd74b18619be5e5b2b119bbc5f85876040516110aa9291906128cf565b60405180910390a35b5050505050565b6000805b600080549050811015611159573373ffffffffffffffffffffffffffffffffffffffff16600082815481106110f6576110f5612c87565b5b9060005260206000200160009054906101000a900473ffffffffffffffffffffffffffffffffffffffff1673ffffffffffffffffffffffffffffffffffffffff1614156111465760019150611159565b808061115190612be0565b9150506110be565b508061119a576040517f08c379a00000000000000000000000000000000000000000000000000000000081526004016111919061282d565b60405180910390fd5b6000829080600181540180825580915050600190039060005260206000200160009091909190916101000a81548173ffffffffffffffffffffffffffffffffffffffff021916908373ffffffffffffffffffffffffffffffffffffffff1602179055505050565b606060018054905067ffffffffffffffff81111561122257611221612cb6565b5b60405190808252806020026020018201604052801561125b57816020015b611248611b29565b8152602001906001900390816112405790505b50905060005b6001805490508110156115d15760026001828154811061128457611283612c87565b5b9060005260206000200160405161129b919061267a565b9081526020016040518091039020604051806101200160405290816000820180546112c590612b7d565b80601f01602080910402602001604051908101604052809291908181526020018280546112f190612b7d565b801561133e5780601f106113135761010080835404028352916020019161133e565b820191906000526020600020905b81548152906001019060200180831161132157829003601f168201915b505050505081526020016001820160009054906101000a900460ff1660ff1660ff16815260200160028201548152602001600382018054806020026020016040519081016040528092919081815260200182805480156113bd57602002820191906000526020600020905b8154815260200190600101908083116113a9575b5050505050815260200160048201805480602002602001604051908101604052809291908181526020016000905b8282101561152c578382906000526020600020906003020160405180608001604052908160008201805461141e90612b7d565b80601f016020809104026020016040519081016040528092919081815260200182805461144a90612b7d565b80156114975780601f1061146c57610100808354040283529160200191611497565b820191906000526020600020905b81548152906001019060200180831161147a57829003601f168201915b505050505081526020016001820160009054906101000a900473ffffffffffffffffffffffffffffffffffffffff1673ffffffffffffffffffffffffffffffffffffffff1673ffffffffffffffffffffffffffffffffffffffff1681526020016001820160149054906101000a900460ff1660ff1660ff168152602001600282015481525050815260200190600101906113eb565b5050505081526020016005820160009054906101000a900460ff161515151581526020016005820160019054906101000a900460ff161515151581526020016005820160029054906101000a900460ff161515151581526020016005820160039054906101000a900460ff1615151515815250508282815181106115b3576115b2612c87565b5b602002602001018190525080806115c990612be0565b915050611261565b5090565b60606001805480602002602001604051908101604052809291908181526020016000905b828210156116a557838290600052602060002001805461161890612b7d565b80601f016020809104026020016040519081016040528092919081815260200182805461164490612b7d565b80156116915780601f1061166657610100808354040283529160200191611691565b820191906000526020600020905b81548152906001019060200180831161167457829003601f168201915b5050505050815260200190600101906115f9565b50505050905090565b6116b6611b29565b6002826040516116c69190612663565b908152602001604051809103902060050160039054906101000a900460ff16611724576040517f08c379a000000000000000000000000000000000000000000000000000000000815260040161171b9061286d565b60405180910390fd5b6002826040516117349190612663565b90815260200160405180910390206040518061012001604052908160008201805461175e90612b7d565b80601f016020809104026020016040519081016040528092919081815260200182805461178a90612b7d565b80156117d75780601f106117ac576101008083540402835291602001916117d7565b820191906000526020600020905b8154815290600101906020018083116117ba57829003601f168201915b505050505081526020016001820160009054906101000a900460ff1660ff1660ff168152602001600282015481526020016003820180548060200260200160405190810160405280929190818152602001828054801561185657602002820191906000526020600020905b815481526020019060010190808311611842575b5050505050815260200160048201805480602002602001604051908101604052809291908181526020016000905b828210156119c557838290600052602060002090600302016040518060800160405290816000820180546118b790612b7d565b80601f01602080910402602001604051908101604052809291908181526020018280546118e390612b7d565b80156119305780601f1061190557610100808354040283529160200191611930565b820191906000526020600020905b81548152906001019060200180831161191357829003601f168201915b505050505081526020016001820160009054906101000a900473ffffffffffffffffffffffffffffffffffffffff1673ffffffffffffffffffffffffffffffffffffffff1673ffffffffffffffffffffffffffffffffffffffff1681526020016001820160149054906101000a900460ff1660ff1660ff16815260200160028201548152505081526020019060010190611884565b5050505081526020016005820160009054906101000a900460ff161515151581526020016005820160019054906101000a900460ff161515151581526020016005820160029054906101000a900460ff161515151581526020016005820160039054906101000a900460ff1615151515815250509050919050565b60008183611a4e9190612a90565b905092915050565b828054828255906000526020600020908101928215611a92579160200282015b82811115611a91578251825591602001919060010190611a76565b5b509050611a9f9190611bc1565b5090565b828054611aaf90612b7d565b90600052602060002090601f016020900481019282611ad15760008555611b18565b82601f10611aea57805160ff1916838001178555611b18565b82800160010185558215611b18579182015b82811115611b17578251825591602001919060010190611afc565b5b509050611b259190611bc1565b5090565b60405180610120016040528060608152602001600060ff1681526020016000815260200160608152602001606081526020016000151581526020016000151581526020016000151581526020016000151581525090565b604051806080016040528060608152602001600073ffffffffffffffffffffffffffffffffffffffff168152602001600060ff168152602001600081525090565b5b80821115611bda576000816000905550600101611bc2565b5090565b6000611bf1611bec8461291d565b6128f8565b905082815260208101848484011115611c0d57611c0c612cea565b5b611c18848285612b3b565b509392505050565b600081359050611c2f81612f10565b92915050565b600081359050611c4481612f27565b92915050565b600082601f830112611c5f57611c5e612ce5565b5b8135611c6f848260208601611bde565b91505092915050565b600081359050611c8781612f3e565b92915050565b600081359050611c9c81612f55565b92915050565b600060208284031215611cb857611cb7612cf4565b5b6000611cc684828501611c20565b91505092915050565b600060208284031215611ce557611ce4612cf4565b5b600082013567ffffffffffffffff811115611d0357611d02612cef565b5b611d0f84828501611c4a565b91505092915050565b60008060408385031215611d2f57611d2e612cf4565b5b600083013567ffffffffffffffff811115611d4d57611d4c612cef565b5b611d5985828601611c4a565b9250506020611d6a85828601611c35565b9150509250929050565b60008060408385031215611d8b57611d8a612cf4565b5b600083013567ffffffffffffffff811115611da957611da8612cef565b5b611db585828601611c4a565b9250506020611dc685828601611c8d565b9150509250929050565b600080600060608486031215611de957611de8612cf4565b5b600084013567ffffffffffffffff811115611e0757611e06612cef565b5b611e1386828701611c4a565b9350506020611e2486828701611c8d565b9250506040611e3586828701611c78565b9150509250925092565b600080600080600060a08688031215611e5b57611e5a612cf4565b5b600086013567ffffffffffffffff811115611e7957611e78612cef565b5b611e8588828901611c4a565b9550506020611e9688828901611c8d565b9450506040611ea788828901611c78565b9350506060611eb888828901611c35565b9250506080611ec988828901611c35565b9150509295509295909350565b6000611ee28383612198565b905092915050565b6000611ef6838361241e565b905092915050565b6000611f0a83836125c4565b905092915050565b6000611f1e8383612627565b60208301905092915050565b611f3381612ae6565b82525050565b611f4281612ae6565b82525050565b6000611f53826129a3565b611f5d8185612a0e565b935083602082028501611f6f8561294e565b8060005b85811015611fab5784840389528151611f8c8582611ed6565b9450611f97836129da565b925060208a01995050600181019050611f73565b50829750879550505050505092915050565b6000611fc8826129ae565b611fd28185612a1f565b935083602082028501611fe48561295e565b8060005b8581101561202057848403895281516120018582611eea565b945061200c836129e7565b925060208a01995050600181019050611fe8565b50829750879550505050505092915050565b600061203d826129b9565b6120478185612a30565b9350836020820285016120598561296e565b8060005b8581101561209557848403895281516120768582611efe565b9450612081836129f4565b925060208a0199505060018101905061205d565b50829750879550505050505092915050565b60006120b2826129b9565b6120bc8185612a41565b9350836020820285016120ce8561296e565b8060005b8581101561210a57848403895281516120eb8582611efe565b94506120f6836129f4565b925060208a019950506001810190506120d2565b50829750879550505050505092915050565b6000612127826129c4565b6121318185612a52565b935061213c8361297e565b8060005b8381101561216d5781516121548882611f12565b975061215f83612a01565b925050600181019050612140565b5085935050505092915050565b61218381612af8565b82525050565b61219281612af8565b82525050565b60006121a3826129cf565b6121ad8185612a63565b93506121bd818560208601612b4a565b6121c681612cf9565b840191505092915050565b60006121dc826129cf565b6121e68185612a74565b93506121f6818560208601612b4a565b6121ff81612cf9565b840191505092915050565b6000612215826129cf565b61221f8185612a85565b935061222f818560208601612b4a565b80840191505092915050565b6000815461224881612b7d565b6122528186612a85565b9450600182166000811461226d576001811461227e576122b1565b60ff198316865281860193506122b1565b6122878561298e565b60005b838110156122a95781548189015260018201915060208101905061228a565b838801955050505b50505092915050565b60006122c7603083612a74565b91506122d282612d0a565b604082019050919050565b60006122ea603883612a74565b91506122f582612d59565b604082019050919050565b600061230d602683612a74565b915061231882612da8565b604082019050919050565b7f4e6f4c6f7373436173686261636b000000000000000000000000000000000000815250565b6000612356601683612a74565b915061236182612df7565b602082019050919050565b6000612379601683612a74565b915061238482612e20565b602082019050919050565b7f566f746500000000000000000000000000000000000000000000000000000000815250565b60006123c2603d83612a74565b91506123cd82612e49565b604082019050919050565b60006123e5602c83612a74565b91506123f082612e98565b604082019050919050565b6000612408601f83612a74565b915061241382612ee7565b602082019050919050565b600061012083016000830151848203600086015261243c8282612198565b91505060208301516124516020860182612645565b5060408301516124646040860182612627565b506060830151848203606086015261247c828261211c565b915050608083015184820360808601526124968282612032565b91505060a08301516124ab60a086018261217a565b5060c08301516124be60c086018261217a565b5060e08301516124d160e086018261217a565b506101008301516124e661010086018261217a565b508091505092915050565b600061012083016000830151848203600086015261250f8282612198565b91505060208301516125246020860182612645565b5060408301516125376040860182612627565b506060830151848203606086015261254f828261211c565b915050608083015184820360808601526125698282612032565b91505060a083015161257e60a086018261217a565b5060c083015161259160c086018261217a565b5060e08301516125a460e086018261217a565b506101008301516125b961010086018261217a565b508091505092915050565b600060808301600083015184820360008601526125e18282612198565b91505060208301516125f66020860182611f2a565b5060408301516126096040860182612645565b50606083015161261c6060860182612627565b508091505092915050565b61263081612b24565b82525050565b61263f81612b24565b82525050565b61264e81612b2e565b82525050565b61265d81612b2e565b82525050565b600061266f828461220a565b915081905092915050565b6000612686828461223b565b915081905092915050565b60006060820190506126a66000830185611f39565b6126b36020830184612636565b6126bf60408301612323565b9392505050565b60006060820190506126db6000830185611f39565b6126e86020830184612636565b6126f46040830161238f565b9392505050565b600060208201905081810360008301526127158184611f48565b905092915050565b600060208201905081810360008301526127378184611fbd565b905092915050565b6000602082019050818103600083015261275981846120a7565b905092915050565b6000608082019050818103600083015261277b81876121d1565b905061278a6020830186612654565b6127976040830185612636565b6127a46060830184612189565b95945050505050565b600060208201905081810360008301526127c6816122ba565b9050919050565b600060208201905081810360008301526127e6816122dd565b9050919050565b6000602082019050818103600083015261280681612300565b9050919050565b6000602082019050818103600083015261282681612349565b9050919050565b600060208201905081810360008301526128468161236c565b9050919050565b60006020820190508181036000830152612866816123b5565b9050919050565b60006020820190508181036000830152612886816123d8565b9050919050565b600060208201905081810360008301526128a6816123fb565b9050919050565b600060208201905081810360008301526128c781846124f1565b905092915050565b60006040820190506128e46000830185612636565b6128f16020830184612654565b9392505050565b6000612902612913565b905061290e8282612baf565b919050565b6000604051905090565b600067ffffffffffffffff82111561293857612937612cb6565b5b61294182612cf9565b9050602081019050919050565b6000819050602082019050919050565b6000819050602082019050919050565b6000819050602082019050919050565b6000819050602082019050919050565b60008190508160005260206000209050919050565b600081519050919050565b600081519050919050565b600081519050919050565b600081519050919050565b600081519050919050565b6000602082019050919050565b6000602082019050919050565b6000602082019050919050565b6000602082019050919050565b600082825260208201905092915050565b600082825260208201905092915050565b600082825260208201905092915050565b600082825260208201905092915050565b600082825260208201905092915050565b600082825260208201905092915050565b600082825260208201905092915050565b600081905092915050565b6000612a9b82612b24565b9150612aa683612b24565b9250827fffffffffffffffffffffffffffffffffffffffffffffffffffffffffffffffff03821115612adb57612ada612c29565b5b828201905092915050565b6000612af182612b04565b9050919050565b60008115159050919050565b600073ffffffffffffffffffffffffffffffffffffffff82169050919050565b6000819050919050565b600060ff82169050919050565b82818337600083830152505050565b60005b83811015612b68578082015181840152602081019050612b4d565b83811115612b77576000848401525b50505050565b60006002820490506001821680612b9557607f821691505b60208210811415612ba957612ba8612c58565b5b50919050565b612bb882612cf9565b810181811067ffffffffffffffff82111715612bd757612bd6612cb6565b5b80604052505050565b6000612beb82612b24565b91507fffffffffffffffffffffffffffffffffffffffffffffffffffffffffffffffff821415612c1e57612c1d612c29565b5b600182019050919050565b7f4e487b7100000000000000000000000000000000000000000000000000000000600052601160045260246000fd5b7f4e487b7100000000000000000000000000000000000000000000000000000000600052602260045260246000fd5b7f4e487b7100000000000000000000000000000000000000000000000000000000600052603260045260246000fd5b7f4e487b7100000000000000000000000000000000000000000000000000000000600052604160045260246000fd5b600080fd5b600080fd5b600080fd5b600080fd5b6000601f19601f8301169050919050565b7f4e65656420746f2068617665206d6f7265207468616e203120696e707574206f60008201527f7074696f6e20666f7220766f74696e6700000000000000000000000000000000602082015250565b7f476976656e205374616b652056616c75652069732062656c6f77206d696e696d60008201527f756d20616c6c6f7761626c65205374616b652056616c75650000000000000000602082015250565b7f557365722068617320616c726561647920766f74656420666f7220746869732060008201527f6f7074696f6e0000000000000000000000000000000000000000000000000000602082015250565b7f50726f706f73616c206973206e6f742061637469766500000000000000000000600082015250565b7f43616c6c6572206973206e6f7420616e2061646d696e00000000000000000000600082015250565b7f50726f706f73616c207769746820676976656e2049504653204861736820686160008201527f7320616c7265616479206265656e2063726561746564206265666f7265000000602082015250565b7f50726f706f73616c207769746820676976656e2049504653204861736820646f60008201527f6573206e6f742065786973740000000000000000000000000000000000000000602082015250565b7f4f7074696f6e20496e64657820676976656e206973206e6f742076616c696400600082015250565b612f1981612ae6565b8114612f2457600080fd5b50565b612f3081612af8565b8114612f3b57600080fd5b50565b612f4781612b24565b8114612f5257600080fd5b50565b612f5e81612b2e565b8114612f6957600080fd5b5056fea2646970667358221220b0ce1ab708cbdad8d14723ed5c4259aaedf76ac976bc183947734553519073bc64736f6c63430008070033",
  "immutableReferences": {},
  "source": "// SPDX-License-Identifier: MIT\r\npragma solidity ^0.8.6;\r\npragma experimental ABIEncoderV2;\r\n\r\nimport \"@openzeppelin/contracts/utils/math/SafeMath.sol\";\r\n\r\nimport \"../pool/DaoPool.sol\";\r\nimport \"../utils/AdminControl.sol\";\r\nimport \"../utils/StringUtil.sol\";\r\n\r\ncontract Voting is AdminControl, StringUtil {\r\n    using SafeMath for uint256;\r\n\r\n    // structures\r\n    struct VoteInfo {\r\n        string proposalHash;\r\n        address voter;\r\n        uint8 option;\r\n        uint256 amount;\r\n    }\r\n\r\n    struct ProposalInfo {\r\n        string ipfsHash;\r\n        uint8 numOfOptions; // max of 255 options\r\n        uint256 minimumStakeValue;\r\n        uint256[] stakedValuePerOption; // index i corresponds to num of tokens staked on option i\r\n        VoteInfo[] votes; // list to track all users who voted on this proposal\r\n        bool isActive;\r\n        bool isLossVoting;\r\n        bool isAllocationProposal;\r\n        bool exists;\r\n    }\r\n\r\n    // events\r\n    event CreateProposal(\r\n        string ipfsHash,\r\n        uint8 numOfOptions,\r\n        uint256 minimumStakeValue,\r\n        bool isLossVoting\r\n    );\r\n\r\n    event NoLossVote(\r\n        address indexed voter,\r\n        uint256 amount,\r\n        uint8 voteOption,\r\n        string indexed proposalHash\r\n    );\r\n\r\n    event LossVote(\r\n        address indexed voter,\r\n        uint256 amount,\r\n        uint8 voteOption,\r\n        string indexed proposalHash\r\n    );\r\n\r\n    // storage\r\n    string[] private proposalHashes;\r\n    mapping(string => ProposalInfo) proposals; // lookup table with ipfsHash as key\r\n\r\n    DaoPool private daoPool;\r\n\r\n    constructor(address[] memory _admins, address _daoPool)\r\n        AdminControl(_admins)\r\n    {\r\n        daoPool = DaoPool(_daoPool);\r\n    }\r\n\r\n    // getters\r\n    function getProposalHashes() external view returns (string[] memory) {\r\n        return proposalHashes;\r\n    }\r\n\r\n    function getProposalInfo(string memory _ipfsHash)\r\n        public\r\n        view\r\n        returns (ProposalInfo memory)\r\n    {\r\n        require(\r\n            proposals[_ipfsHash].exists,\r\n            \"Proposal with given IPFS Hash does not exist\"\r\n        );\r\n        return proposals[_ipfsHash];\r\n    }\r\n\r\n    function getAllProposals()\r\n        external\r\n        view\r\n        returns (ProposalInfo[] memory proposalInfos)\r\n    {\r\n        proposalInfos = new ProposalInfo[](proposalHashes.length);\r\n\r\n        for (uint256 i = 0; i < proposalHashes.length; i++) {\r\n            proposalInfos[i] = proposals[proposalHashes[i]];\r\n        }\r\n    }\r\n\r\n    // gets the addresses and amt staked on the given option for the given proposal\r\n    function getVotesForOption(string memory _ipfsHash, uint8 _optionIndex)\r\n        public\r\n        view\r\n        returns (VoteInfo[] memory votes)\r\n    {\r\n        ProposalInfo memory p = getProposalInfo(_ipfsHash);\r\n\r\n        VoteInfo[] memory votesForOption = new VoteInfo[](p.votes.length);\r\n\r\n        uint256 counter = 0;\r\n\r\n        for (uint256 i = 0; i < p.votes.length; i++) {\r\n            VoteInfo memory voteInfo = p.votes[i];\r\n            if (voteInfo.option == _optionIndex) {\r\n                votesForOption[counter] = voteInfo;\r\n                counter++;\r\n            }\r\n        }\r\n\r\n        return votesForOption;\r\n    }\r\n\r\n    // setters\r\n\r\n    // Creates proposal object with given parameters\r\n    function createProposal(\r\n        string memory _ipfsHash,\r\n        uint8 _numOfOptions,\r\n        uint256 _minimumStakeValue,\r\n        bool _isLossVoting,\r\n        bool _isAllocationProposal\r\n    ) external onlyAdmins {\r\n        require(\r\n            _numOfOptions > 1,\r\n            \"Need to have more than 1 input option for voting\"\r\n        );\r\n        require(\r\n            !proposals[_ipfsHash].exists,\r\n            \"Proposal with given IPFS Hash has already been created before\"\r\n        );\r\n\r\n        ProposalInfo storage newProposal = proposals[_ipfsHash];\r\n\r\n        newProposal.numOfOptions = _numOfOptions;\r\n        newProposal.minimumStakeValue = _minimumStakeValue;\r\n        newProposal.stakedValuePerOption = new uint256[](_numOfOptions);\r\n        newProposal.isAllocationProposal = _isAllocationProposal;\r\n        newProposal.isLossVoting = _isLossVoting;\r\n        newProposal.isActive = true;\r\n        newProposal.exists = true;\r\n\r\n        proposalHashes.push(_ipfsHash);\r\n\r\n        emit CreateProposal(\r\n            _ipfsHash,\r\n            _numOfOptions,\r\n            _minimumStakeValue,\r\n            _isLossVoting\r\n        );\r\n    }\r\n\r\n    // Function to close/disable the proposal.\r\n    function setProposalStatus(string memory _ipfsHash, bool _isActive)\r\n        external\r\n        onlyAdmins\r\n        returns (ProposalInfo memory)\r\n    {\r\n        require(\r\n            proposals[_ipfsHash].exists,\r\n            \"Proposal with given IPFS Hash does not exist\"\r\n        );\r\n\r\n        ProposalInfo storage proposal = proposals[_ipfsHash];\r\n        proposal.isActive = _isActive;\r\n\r\n        if (!proposal.isLossVoting && !proposal.isActive) {\r\n            // send money back if no loss vote proposal has ended\r\n            for (uint256 i = 0; i < proposal.votes.length; i++) {\r\n                VoteInfo storage voteInfo = proposal.votes[i];\r\n                daoPool.rewardUser(\r\n                    voteInfo.voter,\r\n                    voteInfo.amount,\r\n                    \"NoLossCashback\"\r\n                );\r\n            }\r\n        }\r\n\r\n        return proposal;\r\n    }\r\n\r\n    function vote(\r\n        string memory _ipfsHash,\r\n        uint8 _optionIndex,\r\n        uint256 _stakeValue\r\n    ) external {\r\n        require(\r\n            proposals[_ipfsHash].exists,\r\n            \"Proposal with given IPFS Hash does not exist\"\r\n        );\r\n        ProposalInfo storage proposal = proposals[_ipfsHash];\r\n\r\n        require(proposal.isActive, \"Proposal is not active\");\r\n\r\n        require(\r\n            _stakeValue >= proposal.minimumStakeValue,\r\n            \"Given Stake Value is below minimum allowable Stake Value\"\r\n        );\r\n        require(\r\n            _optionIndex < proposal.numOfOptions,\r\n            \"Option Index given is not valid\"\r\n        );\r\n\r\n        VoteInfo[] memory votesForOption = getVotesForOption(\r\n            _ipfsHash,\r\n            _optionIndex\r\n        );\r\n\r\n        // create another lookup table in the future to makes this O(1)\r\n        for (uint256 i = 0; i < votesForOption.length; i++) {\r\n            if (votesForOption[i].voter == msg.sender) {\r\n                revert(\"User has already voted for this option\");\r\n            }\r\n        }\r\n\r\n        daoPool.getTokenFrom(msg.sender, _stakeValue, \"Vote\");\r\n\r\n        proposal.stakedValuePerOption[_optionIndex] = SafeMath.add(\r\n            proposal.stakedValuePerOption[_optionIndex],\r\n            _stakeValue\r\n        );\r\n\r\n        proposal.votes.push(\r\n            VoteInfo({\r\n                voter: msg.sender,\r\n                amount: _stakeValue,\r\n                proposalHash: _ipfsHash,\r\n                option: _optionIndex\r\n            })\r\n        );\r\n\r\n        if (proposal.isLossVoting) {\r\n            emit LossVote(msg.sender, _stakeValue, _optionIndex, _ipfsHash);\r\n        } else {\r\n            emit NoLossVote(msg.sender, _stakeValue, _optionIndex, _ipfsHash);\r\n        }\r\n    }\r\n}\r\n",
  "sourcePath": "C:\\Users\\marcu\\Desktop\\Coding\\Projects\\fintech-dao\\contracts\\contracts\\voting\\Voting.sol",
  "compiler": {
    "name": "solc",
    "version": "0.8.7+commit.e28d00a7.Emscripten.clang"
  },
  "schemaVersion": "3.4.2",
  "updatedAt": "2022-08-14T08:43:12.751Z",
  "devdoc": {
    "kind": "dev",
    "methods": {},
    "version": 1
  },
  "userdoc": {
    "kind": "user",
    "methods": {},
    "version": 1
  },
  "address": "0x74C986e4e330162D4EfC971028455b976FDa0504"
}